:10000000F8FF002011040000532F0000532F0000C0
:10001000532F0000532F0000532F0000532F0000D8
:10002000532F0000532F0000532F0000532F0000C8
:10003000532F0000532F0000532F0000532F0000B8
:10004000532F0000532F0000532F0000532F0000A8
:10040000FFFFFFFFFFFFFFFFFFFFFFFFFEFFFFFFFD
:1004100062B603F0EBFDFEE72DE9F04F80460FF2E8
:100420001C60A5B017461D46D0E90023CDE9122374
:10043000002004910D900DF1500A6FF0004900E08A
:10044000E7190020ADF8020012AB4FF0FF32394639
:100450000DF1020001F08BF80446012C04DA387823
:10046000441EA441E443E40FBDF8020025280CBF5C
:10047000A4F1010BA346BBF1010F0EDB3E4616F8BB
:10048000011B0498C0470028049000F0D2820D9808
:10049000401CBBF1010B0D90F1D1BDF802002528E5
:1004A00007D100200790089009900A900B900C90BB
:1004B00005E00028C4D10D98BDE240F0010017F816
:1004C000011F2029F9D023290DD02B2904D02D2953
:1004D00006D030290AD00CE040F0020080B2EEE7EE
:1004E00040F00400FAE740F00800F7E740F01000A1
:1004F000F4E72A290ED12968296051F8042B2960D4
:10050000002A0F9204D5514240F004000F9180B2AE
:100510007F1C11E000210F9109E00F99494505D09A
:1005200001EB810302EB430130390F917F1C3A78D4
:10053000A2F130010A29F0D339782E2903D04FF0E7
:10054000FF310E911DE017F8011F2A2907D12968F4
:1005500029607F1C51F8042B29600E9211E00021C4
:100560000E9109E00E99494505D001EB810302EB9C
:10057000430130390E917F1C3A78A2F130010A29EB
:10058000F0D3ADF840000FF2BC40397801F004F828
:1005900008B117F8010B8DF842009DF84200682859
:1005A00002BF39786829622005D06C2804BF3878EA
:1005B0006C2803D171208DF842007F1C14A806908E
:1005C00017F8014BB4F125002AD01C3800F0CB807D
:1005D000001F022840F2C780133800F0EC80093871
:1005E00000F0C180801E00F05381401E00F02C817D
:1005F000401E022840F2B780001F00F02581401FF6
:1006000000F08280401E00F0D680401E2CD0C01E1C
:100610000BD0801E00F0CF80C01E00F0CC805AE1CD
:1006200025208DF8500001205EE19DF842006C28E5
:100630002868286014D050F8046B286005960E9C3A
:10064000002C04D5304600F0B3FF044606E02246F5
:100650000021304600F0C8FF00B1841B089444E13B
:1006600050F8042B28602FE1296829603C2451F8B8
:10067000040B29600021CDE9020114A80590DDE9F1
:100680000201069E11B908B90E9AB2B10206120F04
:10069000A0EB02123032D2B2631E3A2AA8BF273230
:1006A000000940EA017009099A5508BF00281C4654
:1006B00003D0059AA3199A42E8D3A0190590C4F172
:1006C0003C010E980891814209DA401A0A904FF6CF
:1006D000EF71BDF840000840ADF8400005E100288A
:1006E00040F103819DF8400000F01400102840F014
:1006F000FC800F98079A801A0A9A801A441A012CD3
:10070000C0F2F3800A94F0E09DF8420062281AD00B
:10071000682806D06A280CD06C281CD0712808D014
:1007200019E02868286050F8041B28600D9808809C
:10073000DBE02868286050F8042B28600D98C1176A
:10074000C2E90001D1E02868286050F8041B286045
:100750000D980870C9E02868286050F8041B2860CC
:100760000D980860C1E02868C01D20F007022A60CB
:10077000D2E9000108322A60CDE90201002902D540
:1007800007982D210AE0BDF84000810702D507989F
:100790002B2103E0C00705D50798202100F80A1097
:1007A000401C079014A8079908180590214602A834
:1007B00000F090FB99E09DF842006C280DD0712864
:1007C00018BF6A2809D12868C01D20F007022A60D6
:1007D000D2E9000108322A6005E02968296051F851
:1007E000040B29600021CDE902019DF84200682830
:1007F00003D1DDE9020180B20BE0622803D1DDE91B
:100800000201C0B205E0742818BF7A2804D1DDE9DE
:1008100002010021CDE902019DF8400000072ED51C
:10082000DDE90201002908BF002828D044F020009B
:10083000782824D10798302100F80A10401C411C68
:10084000079100F80A401AE09DF84200294600F09E
:10085000FDF8CDE90201002902DA07982D210AE00E
:10086000BDF84000810702D507982B2103E0C0079F
:1008700005D50798202100F80A10401C079014A8FD
:10088000079908180590214602A800F09FFA2CE06D
:100890009DF842006C2809D0012007902868286044
:1008A00050F8041B28608DF850101EE0286828605E
:1008B00001AA50F8041B2860ADF804100020ADF820
:1008C00006004FF0FF300E9002A9404600F0F5F808
:1008D00000280AD5ADE025208DF8500001200790B2
:1008E0001CB18AF80140022007900F980799401A1E
:1008F0000A99401A0899401A0B99401A0999401A06
:100900000C99441A9DF84000400710D420208DF81F
:100910000000002609E0012300AA02A9404600F0D9
:1009200001FE002840F08580761CA642F3DB079E7E
:100930000DF1500B0AE01BF8011B0498C04700287A
:10094000049076D00D98401C0D90761E002EF2D1AA
:1009500030208DF800004FF0000B0A9E09E00123C3
:1009600000AA02A9404600F0DDFD002861D10BF18C
:10097000010BB345F3DB089EDDF814B00AE01BF869
:10098000011B0498C0470028049052D00D98401CC9
:100990000D90761E002EF2D130208DF800004FF021
:1009A000000B0B9E09E0012300AA02A9404600F0BB
:1009B000B9FD00283DD10BF1010BB345F3DB0598E0
:1009C0000899099E01EB000B09E01BF8011B049834
:1009D000C047049068B30D98401C0D90761E002E01
:1009E000F3D130208DF800004FF0000B0C9E08E092
:1009F000012300AA02A9404600F094FDC8B90BF1FA
:100A0000010BB345F4DB9DF8400040077FF519ADBD
:100A100020208DF80000002600E0761CA642BFF6DC
:100A200010AD012300AA02A9404600F07BFD00287A
:100A3000F3D04FF0FF3025B0BDE8F08F000000008C
:100A400000000000686A6C747A4C0000622826D0AE
:100A500068281DD06A2808D06C2827D0712804D0B7
:100A6000742823D07A280CD020E00868C01D20F01C
:100A700007000860D0E900230830086019461046D6
:100A800070470A680A6052F8040B0A600021704738
:100A90000A680A6052F8040B0A6000B20BE00A68A8
:100AA0000A6052F8040B0A6040B204E00A680A6067
:100AB00052F8040B0A60C11770472DE9F44F0D4638
:100AC00094B0D5F830B0BBF1000F804648BF6FF04E
:100AD000004B00F0B5FD696B401801900FF67420D3
:100AE000D0E90023CDE9022395F83800400702D46D
:100AF0000198412806D240200DF1100A01904FF0D4
:100B0000000909E000F0A2FD5FEA000AF7D14FF00A
:100B1000FF3058E1ABEB040BBBF1010FC0F2CD800D
:100B20001498018802AA0DF1010000F0E7FD0028E9
:100B3000044600F1D5801498008810B9641E00F1B5
:100B4000CF80A345C0F2B98068690199221891420B
:100B500080F0A180296AC5F834904042401AA96902
:100B6000401A696A401AE969401AA96AA0EB0109AA
:100B700095F83800400710D420208DF8000000269A
:100B800009E0012300AA2946404600F0CBFC0028DA
:100B900040F0A680761C4E45F3DB6E6957460BE0AD
:100BA00017F8011BA868C0470028A86000F09880CB
:100BB000E86A401CE862761E002EF1D130208DF8E4
:100BC000000000272E6A09E0012300AA29464046BA
:100BD00000F0A8FC002840F083807F1CB742F3DBC4
:100BE000AE69EF680AE017F8011BA868C047002843
:100BF000A86075D0E86A401CE862761E002EF2D12B
:100C000030208DF8000000276E6A08E0012300AA5A
:100C10002946404600F086FC002861D17F1CB7427F
:100C2000F4DBE868A969EE690F180AE017F8011B00
:100C3000A868C0470028A86052D0E86A401CE86253
:100C4000761E002EF2D130208DF800000027AE6A0B
:100C500008E0012300AA2946404600F063FC002872
:100C60003ED17F1CB742F4DB95F8380040070ED523
:100C700020208DF80000002607E0012300AA294665
:100C8000404600F04FFC58BB761C4E45F5DB4FF05C
:100C90000009C5F81490224668690DF1010150441D
:100CA00000F03AFD6869201868611498801C14905F
:100CB000801E008800287FF42DAF686B6969401A98
:100CC000296A401AA969401A696A401AE969401AF2
:100CD000A96A471A95F83800400710D400240CE0A0
:100CE0004FF0FF3968E0A8682021C0470028A860BD
:100CF000F6D0E86A401CE862641CBC42F3DB6B6916
:100D000052462946404600F00DFC0028E8D12C6AE6
:100D1000002609E0A8683021C0470028A860DFD07D
:100D2000E86A401CE862761CA642F3DBAB69EA681D
:100D30002946404600F0F6FB0028D1D16C6A002617
:100D400009E0A8683021C0470028A860C8D0E86A38
:100D5000401CE862761CA642F3DBE868A969EB69EF
:100D60000A182946404600F0DDFB0028B8D1AC6ADD
:100D7000002609E0A8683021C0470028A860AFD04D
:100D8000E86A401CE862761CA642F3DB95F838005E
:100D900040070DD5002409E0A8682021C04700289D
:100DA000A8609DD0E86A401CE862641CBC42F3DB8A
:100DB000C5F81490C5F8349004A882451CBF50466D
:100DC00000F0E6FC484615B0BDE8F08F2DE9FA4E7C
:100DD00005460A462F696F2A08BF082405D041F04E
:100DE0002000782814BF0A2410243C26D5E90001ED
:100DF000642A18BF692A81468A4605D1002903DA88
:100E0000D9F100096AEB4A0ABAF1000F08BFB9F13B
:100E1000000F0CD1286B50B9082C36D195F838004A
:100E2000000732D530203B2687F83B002DE0E31742
:100E300048465146224600F0EBFCA4FB0023A9EBF8
:100E400002023032D2B2A6F1010B3A2A5E4603DB2F
:100E50009DF80030513B9A1881465FEA010A0BF871
:100E6000072008BFB9F1000F03D0E868F1198842E4
:100E7000DDD3082C09D195F83800000705D5F05DC1
:100E8000302802D0761E3020F055C6F13C00A86113
:100E9000F119E960296B884208DA081A28624FF6CE
:100EA000EF71288F08402887BDE8F38E00290ED502
:100EB00095F8381001F01401102908D1696B6A699E
:100EC000891A2A6A891A0E1A012EA8BF2E62BDE855
:100ED000F38E00002DE9F24F04468EB0D4E90001F4
:100EE000CDE9020104AF9DF8380040F0200BBBF1C2
:100EF000610F0AD0206B002848BF062004D408BF29
:100F0000BBF1670F01D1012020636168C1F30A5072
:100F100040F2FF7290421CD1080304BF20680028F1
:100F200009D10320A0619DF8380061381A2836D312
:100F30000FF2346108E00320A0619DF838006138A9
:100F40001A2829D30FF21861E068032200F0E4FBAD
:100F5000BEE1012816DA204600F0D1FC012811DBA1
:100F600000250020BBF1610F20D1E168302201F89B
:100F7000012B4A1CE2609DF83820612A0CBF7822C0
:100F800058220FE0626840F2FE3161F31E52451AAA
:100F900062604FF0FF30E5E70FF2C051D4E70FF287
:100FA000C451D1E70A706169891C616110B90026DA
:100FB000002584E1BBF1610F40F09780206BD4E9FC
:100FC00000AB00284CBF2126461CDDE902010022AF
:100FD000002300F0B5FC36B23ABF8BF00040CDE9FB
:100FE00002A0CDE902AB06F101082D1F8DF81020FB
:100FF0000DF1110700E0C71DB8F1010F33DBDDE98A
:1010000002010022002300F0B3FC2CD21C2102A814
:1010100000F0C6FCDDE9020100F04AFDA8F1070876
:10102000B8F1010F814609DB00F06EFD02460B4668
:10103000DDE9020100F080FDCDE90201F81D072184
:1010400005E009F00F0200F8012D4FEA2919B9F166
:10105000010F01DB491EF4D5491E5CBF002200F8D8
:10106000012DF9D5C7E70DF11100391AB142B8BF0A
:101070000E4636B230000DF111072FD4884206DA41
:1010800004A9411849780829A8BF0F2100DA0021D6
:1010900004AA821800E0761E12F80139401E8B4225
:1010A000F9D00F2904D104A941184A78521C4A707A
:1010B000002802D504AF761C2D1D36B2701E0DD44B
:1010C000C1190A783032D2B23A2A03DB9DF838309F
:1010D0003A3B9A18401E01F80129F2D5206B0028EE
:1010E00040F1ED80701E2063E9E0DDE9020100229D
:1010F000002300F025FC3CBF81F00041CDE9020156
:101100002DB247F2975068434B49DFF8309190FB7E
:10111000F1F52DB2C5F1070ABAF1010F90461CDBBB
:10112000DDE902675FEACA7007D542464B463046A2
:10113000394600F0C1FD06460F4640464946424644
:101140004B464FEA6A0A00F0B7FDBAF1000F80463D
:101150008946E7D1CDE9026724E0CAF1000A0026FA
:10116000374F14E05FEACA7007D542464B46304617
:10117000394600F0A1FD06460F4640464946424624
:101180004B4600F099FD4FEA6A0A80468946BAF15B
:10119000000FE7D1DDE9020132463B4600F05EFE7A
:1011A000CDE90201BBF1660F216BDFF898900CBF0F
:1011B00005F10A0006204618142EA8BF1326302079
:1011C0008DF810000DF11107012E3DDBDDE9020164
:1011D00000F084FC07F1080104220A23B0FBF3F3BA
:1011E00003EB8307A0EB4700303001F8010C0A2025
:1011F000B3FBF0F000EB8007A3EB47033033521E44
:1012000001F8023DE9D1083E012E01F10807DBDBC0
:10121000DDE9020100F062FC00F080FC02460B46B2
:10122000DDE9020100F088FC00224B4600F044FD9D
:10123000CDE90201CAE700BFA086010000002440FA
:101240000000F03F84D797410DF11100381A0DF1DD
:10125000110702E0401E6D1E7F1C39783029F9D03D
:10126000BBF1660F02D12DB2691C04E0BBF1650F22
:101270000CBF01210021226B8E1836B2B042B8BFDC
:10128000064636B231001AD4814204DAC85D3528E8
:10129000A8BF392000DA3020CA19521E00E0761E9D
:1012A00012F80139491E8342F9D0392802D1C85DAC
:1012B000401CC855002902D57F1E761C6D1C2DB21E
:1012C0009DF83810009533B23A46204600F003F8F6
:1012D0000FB0BDE8F08F2DE9F04786B006468A468C
:1012E00090461D4600F003FF012D406A376B90F8D1
:1012F000009002DA01250FF274284AF02000BDF9AF
:101300003840662808BF641C12D0672876D114F1D3
:10131000040F79DBBC4277DA96F83800641C0007CA
:1013200002D4BD42B8BF2F4624B23F1B48BF00279E
:1013300024B2F068B169012C21DA4A1C30230B5425
:10134000012F03DA96F83810090702D502F8009049
:10135000521CE742B8BF7C4224B2E7196142AF4257
:10136000B2617162B8BF3D46B3692DB2F5612A46DC
:101370004146181800F0D0F9781BB062BBE008189D
:10138000A54216DA2A46414600F0C6F9B169691845
:10139000601B012FB161706203DA96F83800000714
:1013A00005D5F06801F80090F069401CF061B76263
:1013B000A1E02246414600F0AFF9B06920182D1B8C
:1013C000012F03DA96F83810090703D5F16800F801
:1013D0000190401CB0612DB2AF42B8BF3D46F068ED
:1013E000B3692DB22A4604EB0801181800F094F9ED
:1013F000B0692818B061781B70627CE0BAF1610FA7
:1014000014D14FF0700A16E0BD4204DA96F8381095
:10141000090758BF2F467F1E48BF0027BAF1670F44
:1014200014BF4FF0450A4FF0650A04E0BAF1410FCE
:1014300008BF4FF0500AB169F06818F8013B0B542F
:101440004A1C012F05DA96F83810090758BFB26117
:1014500015D502F80090531C012FB3610FDB6D1EF0
:101460002DB2AF42B8BF3D462DB22A4641461818AC
:1014700000F052F9B0692818B061781B7062F0680A
:10148000B1690918200081F800A004D42B2048700D
:1014900001F1020804E02D224A7001F102086442C1
:1014A000002502AF08E00A2200A800F039FE0198EA
:1014B00007F8010B6D1C009C21B20129F3DA022D03
:1014C00006DA4AF02000652804BF302008F8010B36
:1014D0004DB9302008F8010B07E06D1E02A8285C0A
:1014E000303008F8010B012DF7DAF068B1690818FF
:1014F000A8EB0000F06196F8380000F01400102806
:101500000DD17069B1690818716A0818F169081875
:10151000B16A0818716B8842BCBF081A306206B005
:10152000BDE8F087F8B504460D4616461F46002074
:1015300004E0E86A401CE8627F1E002047B116F80C
:10154000011BA868A0470028A860F2D14FF0FF3027
:10155000F2BD000000000000000000006E616E009F
:101560004E414E00696E6600494E46003000F8B5A7
:1015700004460D4616461F4600F0DAFD3B4632464D
:101580002946204601B0BDE8F04000F0E8BD026801
:10159000531C0360117070470278C9B28A421AB1B5
:1015A0001CBF10F8012FF9E718BF0020704700009A
:1015B00000F10103810704D010F8011B89B18107F4
:1015C000FAD10268B2F10131914311F0803F04BFBA
:1015D00050F8042FF6E710F8011B11B110F8011BA9
:1015E000FBE7C01A70470000C9B2830706D0521E3D
:1015F00022D310F8013B9942F7D11FE0083A13D3E8
:1016000002F1040241EA012141EA014150F8043BA0
:10161000121F21BF4B40A3F1013C2CEA030C1CF02C
:10162000803FF3D0C9B2001F083210F8013B521EB0
:1016300028BF91EA030FF8D818BF0120401E704759
:1016400080B500F075FD012002BD000070B50546B3
:1016500005F10F00C408C046C046E400A54232D2DE
:10166000082C04D2082402E0083000F091F8224847
:10167000026811000CD1011D0A6802B31368A3426D
:1016800038BF111DF8D310E01D68A5420DD2191DF9
:101690000B68002BF8D11268011D00E0191D0B68C2
:1016A00093420CD01D68A542F8D361B10D682A6839
:1016B000A2F10803A3420AD26A680A600FE000F0B0
:1016C00071FD0028D0D1C046C046002070BD63190E
:1016D0000B60121B6E685E600B681A602C600968F4
:1016E00000291DBF4A68002A091D00210160C0466B
:1016F000C04605F1080070BDB80CFF1F70B5044668
:101700000D46164600F014FD324629462046BDE837
:10171000704000F017BD000062B38B0708D0521E66
:1017200011F8013B00F8013B00F024808B07F6D153
:10173000830740F0208000BF103A07D330B4B1E8EF
:101740003810103AA0E83810F9D230BC530724BF43
:10175000B1E80810A0E8081044BF51F8043B40F875
:10176000043BD20724BF31F8022B20F8022B44BFE0
:101770000B7803707047083A07D3B1E80810083AAD
:1017800040F8043B40F804CBF7D25307E4E70000ED
:1017900000B9704738B5A0F108042068082833D391
:1017A00010F0070F30D1C046C0461848416809B153
:1017B0008C4203D26160446017E019464B680BB15C
:1017C000A342FAD30B685D18AC421BD3A54204D1E7
:1017D0002268D2180A600C4607E04A681AB12368EA
:1017E0001B199A420ED362604C60616851B1226845
:1017F00013198B4206D1002303600868801820600B
:1018000048686060C046C04631BD0000B80CFF1F8C
:101810001B4213D1094236D12AB18446B0FBF2F003
:1018200002FB10C2704700F0D3BCFCD3002200239F
:1018300070470B000200002100207047904271EBBE
:10184000030CF6D370B5B1FA81F4B3FA83F52C1B0F
:10185000A340C4F1200532FA05F63343A2405FF0FD
:101860000046E64002E05B085FEA3202841A71EB50
:10187000030524BF204629467641F4D302000B001D
:101880003000002170BD012ACFD970B5140C20D0D2
:10189000B1FA81F4B2FA82F5C4F120046419B4F10A
:1018A0002006D6D3B2405FF00044F440002502E0A9
:1018B00052085FEA3303C61A71EB020E24BF3046AA
:1018C000714664416D41F3D302000B0020002900F2
:1018D00070BD0C46B1FBF2F102FB11452D0445EA47
:1018E0001045B5FBF2F402FB145580B240EA054501
:1018F000B5FBF2F002FB105240EA044070BD30B478
:10190000436803F0004201211B031B0B436004BF2B
:101910000368002B08D10DE00368DD0F45EA44049D
:1019200044605B000360491E4468E302F4D523036E
:101930001B0B436043681A434260084630BC704743
:101940004FF4001C1CEB410F94BF1CEB430F09E04C
:1019500041EA030C50EA4C0C52EA0C0C03D29942B7
:1019600008BF9042704714BF8B428242704700000C
:101970004FF4001C1CEB410F94BF1CEB430F09E01C
:1019800041EA030C50EA4C0C52EA0C0C03D28B4295
:1019900008BF8242704714BF9942904270470000CE
:1019A00070B504460D466068C0F30A5040F2FF71FE
:1019B000884207D16068000304BF2068002817D060
:1019C000022070BD20B92046FFF799FF012868DA90
:1019D000012D0FDB40F2FF71091A8D420AD36068B6
:1019E000002847BF0020304900203049C4E90001E9
:1019F000012070BD4142A942616806DA6FF31E51B1
:101A0000401941EA0050606042E0401E6368451999
:101A1000012205F1350062F31F53352801F0004122
:101A2000636003D361600020206070BD002215F167
:101A30001F0F04DA226823600020203560606842AE
:101A400014D0521E25689241C0F12003D2439D401C
:101A500045EAD272256825FA00F6656805FA03F3AF
:101A600033432360636823FA00F5656060680843C8
:101A7000B2F1004F606003D80DD12078C0070AD5BD
:101A80002068401C2060206828B96068401C6060A5
:101A90004FF0FF3070BD6068884204BF20680028A6
:101AA000F6D1002070BD00BF0000F0FF0000F07F05
:101AB000F446400D40EAC120490006D200F014F877
:101AC000004248BF6FF00040604700F00DF84FF053
:101AD000004188428CBF084640426047400D40EAC2
:101AE000C120490080F00D8040F00040490DA1F573
:101AF0008061491C05D4D1F11F0154BFC840C017F3
:101B000070474FF000007047010040F10980F44633
:101B1000404200F005F851F000416047010000BF6D
:101B200009D0B0FA80F18840C91CC1F5846109056B
:101B300001EBD02140057047F0B44FF0004591EA29
:101B4000030F44BF6B4000F045BB00BF841A71EB2C
:101B5000030604D26E40001BB141121973414FF4C9
:101B6000001C1CEB410F34BF7CEB430684E00C0DE2
:101B7000A4EB1356362E7DDC012E43DC45EAC3234D
:101B800043EA525312BFD20292025B08240545EA8F
:101B9000C12141EA5051D2EBC020994125D407D14F
:101BA000B0FA80F610FA06F164D00020203608E082
:101BB000B1FA81F6B140C6F1200220FA02F21143D7
:101BC000B0404FEAF474B4EB465434F001064FEAE7
:101BD00074040AD8D6F50016760D04F00044F040DF
:101BE00061FA06F25040F1404840C00A40EA4150D4
:101BF00021F0004128BF5FEA500550F1000044EB9E
:101C0000D12137E045EAC323DB0A45EAC121C90AED
:101C1000B6F120050EDD42EA0242120CC5F12006A3
:101C200003FA06F6EB4042EA06056D42984161F17F
:101C300000010DE062FA06F5F240554063FA06FC39
:101C400082EA0C02F3405A406D42904161EB03017D
:101C500011F4801F05D1641E620502D06D00404161
:101C6000494121F48011430875F1004350F100000F
:101C700041EB0451F0BC70471CEB410F15D223F02F
:101C8000004352EA43060BD04FEA4C0CBCEB410F29
:101C900004D80C0D661E342EB7DDEBE7801A99418F
:101CA00050EA410608BF0021E4E708BF1CEB430FE0
:101CB00028BF6FF00001DDE7B0B581EA030C0CF03E
:101CC000004C40F2FF7515EA11541DBF15EA135779
:101CD000AC42AF4239E0E41923EA455343F48013A0
:101CE000C90241F0004141EA505EC7021100A7FB62
:101CF000020200284FF00000EEFB01204FF000012F
:101D0000E3FB072118BF42F00102401800214941BE
:101D1000E3FB0E01A4F580640F0302D252004041A0
:101D2000494154F101046CDD470872F1004250F161
:101D3000000051EB0451A1F580115CBF41EA0C0198
:101D4000B0BD4CEA05510020B0BD05EA1357AC42C6
:101D500014BFAF4241E050EA410E1CBF52EA430EAD
:101D600002E061460020B0BD24423C441BD15FEA42
:101D7000070EF6D0090302BF01460020AEF1140E93
:101D8000B1FA81F7AEEB070401FA07FE0C37C7F191
:101D9000200100FA07F7C8404EEA000E23EA455337
:101DA00043F48013A2E733F00043B3FA83F704BF90
:101DB000B2FA82FE77440B3FE41BB7F1200E2FBF2F
:101DC00002FA0EF3BB40C7F1200E22FA0EFE38BF16
:101DD00043EA0E03BA40641C82E750EA410E14BF86
:101DE00052EA430E6FF000014FF4001717EB430F58
:101DF0008ABF194617EB410FB5E74CEA05510020A1
:101E0000B0BDD4F10104B4F120070FDAC4F120070A
:101E1000520828BF42F0010210FA07F501FA07F74D
:101E2000E1BF2A43E0403843E1400FE0352C98DC25
:101E3000C7F1200452EA400220FA07F218BF42F02C
:101E4000010231FA07F0A1400A43002172F1004279
:101E500050F1000051EB0C01B0BD00002DE9F04144
:101E600040F2FF7581EA030C0CF0004C15EA1154A6
:101E70001DBF15EA1357AC42AF42E9E0BC41C1F3C4
:101E80001301C3F31303801A994143F4801304D25E
:101E9000641E4000494180185941C90241EA50512D
:101EA000B1FBF3F603FB1611A2FB0675D7EBC020BE
:101EB000A94102D2761E80185941C90241EA505107
:101EC000B1FBF3FE03FB1E11A2FB0E75D7EBC02086
:101ED000A94103D2AEF1010E80185941890241EAAD
:101EE0009051760546EA8E2EB1FBF3F603FB1611F0
:101EF000A2FB0675D7EB8020A94102D2761E80187E
:101F00005941C90241EA50514EEA060EB1FBF3F6BF
:101F100003FB1611A2FB0675D7EBC020A94102D224
:101F2000761E80185941C90241EA5051B1FBF3F7BE
:101F300003FB1711A2FB0735D3EBC020A94167F1C2
:101F400000070CBF004247F0010766F3D5274FEAB0
:101F50001E31B80814F5806414DDBD0775F1004228
:101F600050EB0E5051EB045111F5801F5CBF41EA5C
:101F70000C01BDE8F0814CF07F6141F0E0410020B0
:101F8000BDE8F081BD076D0840EA0E5041F48011B4
:101F9000D4F10104B4F120060ADAC4F120060200EB
:101FA000E04001FA06F3E1401843B24015430EE069
:101FB000342C14DCC6F1200445EA40056D0820FAF3
:101FC00006F2154321FA06F0A1400D43002175F1F8
:101FD000004250F1000051EB0C01BDE8F0810020FF
:101FE0005FEA0C01BDE8F081CFB992185B41B3FA0A
:101FF00083F704BFB2FA82F6BF190B3FB7F1200690
:102000002FBF02FA06F3BB40C7F1200622FA06F6FC
:1020100038BF3343BA401CB1E419641E2FE77F4236
:1020200031F00041B1FA81F404BFB0FA80F6A4198E
:102030000B3CB4F120062FBF00FA06F1A140C4F119
:10204000200620FA06F638BF3143A0403C1B16E7B5
:10205000AC421ABF05EA1357AF4214E050EA4106FA
:102060001CBF52EA4306BFE750EA410730466146CB
:102070001CBF41EA0551BDE8F08152EA430C08BF9C
:10208000C143BDE8F08100204FF4001616EB410F6C
:1020900098BF16EB430F08BF16EB410F24BFC14397
:1020A00005E016EB430F0CBF61464CEA0551BDE855
:1020B000F081000080B5134800F0F6F80FF24C02F2
:1020C0000FF244010160426241600FF244028263F8
:1020D00081600FF24402C1600161416181618162EE
:1020E000C16201634163C2630164416401BD10B513
:1020F000044800F0D9F80446206808B9FFF7DAFF71
:10210000204610BD1815FF1F000000002E00000023
:1021100066616C73650000007472756500000000F4
:1021200091FBF2F303FB1211C0E90031704700008C
:1021300080B5DFF80C0000F0B7F8806902BD000040
:10214000A815FF1F30B430B90FF24800D0E90045A0
:10215000C2E900451BE00170012030BC704730B47B
:1021600031B90FF23800D0E90045C3E900450EE06F
:102170001AB930BC6FF00100704708B10A780280CC
:102180000978481E804130BCC043C00F7047002012
:1021900030BC70470000000000000000000000009C
:1021A000000000000749086808B100207047064891
:1021B000C008C00008600549C908C900091A0160C3
:1021C000704700BFC00CFF1F1F0DFF1F1815FF1F1A
:1021D00070470000841A71EB030603D2001BB14163
:1021E000121973414FF4001C1CEB410F34BF7CEB00
:1021F000430443E00C0DA4EB1356352E50DC45EAA6
:10220000C323DB0A45EAC121C912B6F120050DDD61
:1022100063FA05F6EB4086EA0305124218BF45F063
:102220000105C01851F100010CD213E062FA06F565
:10223000F2405540F3415A40B340F3405A408018B1
:10224000594107D349085FEA30005FEA350528BFE6
:1022500045F0010501F58011420875F1004250F189
:10226000000041EB0451F0BC4FF4001C1CEB410F8B
:1022700038BF70470020090D090570471CEB410F5E
:1022800010D252EA43060BD0BCEB410F05D80C0D1F
:10229000AB43661E342EB5DD02E0AB4380185941D6
:1022A000F0BC7047F0BC70477047000000000000B1
:1022B000000000000000000000000000000000001E
:1022C000000000000000000000004E6F6E4D6173C2
:1022D0006B61626C65000000004861726446617564
:1022E0006C740000000000004D656D4D616E61670B
:1022F000656D656E7400004275734661756C74009F
:1023000000000000000055736167654661756C74DC
:1023100000000000000000000000000000000000BD
:1023200000000000000000000000000000000000AD
:10233000000000000000000000000000000000009D
:10234000000000000000000000000000000000008D
:1023500000535643616C6C00000000000000000058
:1023600044656275674D6F6E69746F72000000009E
:1023700000000000000000000000000000005065A8
:102380006E64535600000000000000000053797393
:102390005469636B0000000000000000444D4130B0
:1023A0000000000000000000000000444D4131002A
:1023B00000000000000000000000444D4132000019
:1023C000000000000000000000444D413300000008
:1023D0000000000000000000444D413400000000F7
:1023E00000000000000000444D41350000000000E6
:1023F000000000000000444D4136000000000000D5
:102400000000000000444D413700000000000000C3
:1024100000000000444D41380000000000000000B2
:10242000000000444D4139000000000000000000A1
:102430000000444D41313000000000000000000069
:1024400000444D4131310000000000000000000058
:10245000444D413132000000000000000000004403
:102460004D41313300000000000000000000444DE9
:1024700041313400000000000000000000444D41E4
:10248000313500000000000000000000444D415FB5
:102490004572726F720000000000004D434D000055
:1024A000000000000000000000004654464C000000
:1024B000000000000000000000526561645F436F8F
:1024C0006C6C6973696F6E004C56445F4C565700D4
:1024D000000000000000004C4C570000000000000D
:1024E0000000000000005761746368646F670000BB
:1024F0000000000000524E470000000000000000F5
:1025000000000000493243300000000000000000DD
:1025100000000049324331000000000000000000CC
:10252000000053504930000000000000000000008F
:10253000005350493100000000000000000000007E
:10254000535049320000000000000000000000432A
:10255000414E305F4F525F4D425F627566004341AE
:102560004E305F4275735F4F666600000043414E18
:10257000305F4572726F72000000000043414E30C0
:102580005F54785F5761726E696E6743414E305F8A
:1025900052785F5761726E696E6743414E305F5784
:1025A000616B655F557000000052657365727665FA
:1025B0006435310000000000526573657276656411
:1025C0003532000000000043414E315F4F525F4DF5
:1025D000425F6275660043414E315F4275735F4FE3
:1025E000666600000043414E315F4572726F7200B3
:1025F0000000000043414E315F54785F5761726EB6
:10260000696E6743414E315F52785F5761726E6900
:102610006E6743414E315F57616B655F55700000D7
:1026200000526573657276656435390000000000FC
:10263000526573657276656436300000000000559F
:10264000415254305F52585F5458000000005541C9
:102650005254305F45525200000000000055415274
:1026600054315F52585F5458000000005541525495
:10267000315F455252000000000000554152543273
:102680005F52585F54580000000055415254325F69
:1026900045525200000000000055415254335F5231
:1026A000585F54580000000055415254335F455262
:1026B0005200000000000055415254345F52585FF0
:1026C00054580000000055415254345F45525200A6
:1026D000000000000055415254355F52585F545875
:1026E0000000000055415254355F45525200000031
:1026F00000000041444330000000000000000000E2
:1027000000004144433100000000000000000000D0
:1027100000434D50300000000000000000000000A9
:10272000434D503100000000000000000000004355
:102730004D50320000000000000000000000465430
:102740004D30000000000000000000000046544D25
:1027500031000000000000000000000046544D322F
:102760000000000000000000000000434D54000085
:102770000000000000000000000052544300000070
:10278000000000000000000000526573657276656D
:10279000643833000000000050495430000000004D
:1027A000000000000000005049543100000000000B
:1027B00000000000000050495432000000000000FA
:1027C00000000000005049543300000000000000E9
:1027D00000000000504442300000000000000000F3
:1027E00000000055534230000000000000000000CF
:1027F0000000555342444344000000000000000024
:1028000000454E45545F313538385F54696D657207
:10281000454E45545F5472616E736D697400004596
:102820004E45545F52656365697665000000454E0C
:1028300045545F4572726F720000000000493253C8
:102840003000000000000000000000005344484336
:102850000000000000000000000000444143300080
:10286000000000000000000000004441433100006F
:102870000000000000000000005453493000000038
:1028800000000000000000004D4347000000000071
:10289000000000000000004C5054696D657200009B
:1028A0000000000000005265736572766564313087
:1028B0003200000000504F52544100000000000060
:1028C00000000000504F5254420000000000000081
:1028D000000000504F525443000000000000000070
:1028E0000000504F5254440000000000000000005F
:1028F00000504F525445000000000000000000004E
:10290000526573657276656431303800000000529C
:102910006573657276656431303900000000526578
:102920007365727665643131300000000052657362
:10293000657276656431313100000000526573655F
:102940007276656431313200000000526573657241
:10295000766564313133000000005265736572762C
:10296000656431313400000000526573657276652C
:10297000643131350000000052657365727665641C
:10298000313136000000005265736572766564313E
:10299000313700000000526573657276656431312D
:1029A0003800000000526573657276656431313914
:1029B00000000000008003400090034000800B40B6
:1029C00000F00F4040F00F4080F00F40C0F00F408B
:1029D00000F10F40F0000A1D30001800320018010D
:1029E000600018186400181A6E00181F7800131879
:1029F0007D00131A8200131C8C000E1296000E1517
:102A0000A0000E18AA000E1BB4000E1EC8000C1C5D
:102A1000E1000B1EFA000A1F0001090800900440A3
:102A200000A0044000B0044000C0044000D00440B6
:102A300000A0064000B0064000C0064000D006409E
:102A400000A00E4000B00E40868788898A000000F2
:102A500002040101C40CFF1F140DFF1FC40CFF1F53
:102A6000C40CFF1FC40CFF1FF10BFF1FD80BFF1F6F
:102A70000000000000000000000000000000000056
:102A80000000000000000000000000000000000046
:102A900038B504000D00E4B2002C03D0022C66D03F
:102AA00049D380E0DFF8A403006850F08070DFF8BD
:102AB0009C130860EDB2002D0BD0022D15D00ED363
:102AC000042D1ED017D3062D27D020D3072D2AD0B2
:102AD0002FE04FF48061412000F0C6F92AE04FF466
:102AE0004071042000F0C0F924E04FF4407105204B
:102AF00000F0BAF91EE04FF44071062000F0B4F97E
:102B000018E04FF48061642000F0AEF912E04FF459
:102B10008061652000F0A8F90CE04FF48061662028
:102B200000F0A2F906E04FF48061672000F09CF904
:102B300000E038E037E0DFF81403006850F0007080
:102B4000DFF808130860EDB2002D02D0012D06D089
:102B50000BE04FF44071202000F086F906E04FF4BE
:102B600040710D2000F080F900E01CE01BE0DFF870
:102B7000E002006850F08070DFF8D4120860EDB217
:102B8000002D02D0012D06D00BE04FF440710A2039
:102B900000F06AF906E04FF440710B2000F064F990
:102BA00000E000E0FFE731BD2DE9F84F04000D0023
:102BB00016001F00E4B2002C0ED0E4B2012C02D0AB
:102BC000E4B2022C02D1EDB2022D05DB4FF4C37149
:102BD000DFF8800200F0A0F92900C9B22000C0B2DD
:102BE000FFF756FFDFF8700200684FF47A71484330
:102BF00080465FEA1840B0FBF6F08146002082462E
:102C00001FFA89F9484650FA0AF0012802DB1AF146
:102C1000010AF5E75FFA8AFABAF1080F05DB40F21C
:102C2000A111DFF8300200F077F9404630FA0AF0DF
:102C3000B0FBF6F081461FFA89F9DFF82002E4B212
:102C400040F82490E4B2002C03D0022C19D00CD30D
:102C500023E01FFA89F919F1010000FB07F042F2A5
:102C60001071B0FBF1F0834617E01FFA89F919F1F2
:102C7000010000FB07F042F21071B0FBF1F0834657
:102C80000BE01FFA89F919F1010000FB07F042F28D
:102C90001071B0FBF1F08346FFE7DFF8C401E4B246
:102CA00050F82400EDB210EBC500DFF8B411E4B227
:102CB00051F82410EDB211EBC501C96831F00401DF
:102CC000C160DFF89C01E4B250F82400EDB210EBD3
:102CD000C5002821C1605FFA8AFA1AF0070050F097
:102CE0000800DFF87C11E4B251F8241008601FFAE4
:102CF00089F9DFF86C01E4B250F82400C0F80890BC
:102D00001FFA89F9DFF85C01C0F800900020DFF8B5
:102D10005011E4B251F82410C864DFF84401E4B261
:102D200050F82400EDB210EBC5001FFA8BFBC0F881
:102D300010B00020DFF82811E4B251F824104860E8
:102D4000BDE8F18F10B50400E4B2012C07D0E4B265
:102D5000022C04D040F2DD213E4800F0DDF8E4B260
:102D60002000012802D0022811D021E03748006855
:102D700050F00070354908604FF4E0610C2000F01D
:102D800073F84FF4E0610D2000F06EF815E0304864
:102D9000006850F080702E4908604FF4C061322006
:102DA00000F062F84FF4C061332000F05DF804E0F9
:102DB00040F21531274800F0AFF82948E4B250F846
:102DC0002400406D50F005002549E4B251F824106C
:102DD00048652348E4B250F82400D0F8800030F071
:102DE00008001F49E4B251F82410C1F88000002007
:102DF0001B49E4B251F82410C86442F2107018491B
:102E0000E4B251F8241088601548E4B250F8240068
:102E1000D0F8800050F001001149E4B251F82410BC
:102E2000C1F880000E48E4B250F82400406D50F024
:102E300001000B49E4B251F824104865002008490C
:102E4000E4B251F82410486010BD00003C800440FA
:102E5000308004400C420000640CFF1F4C0CFF1F2C
:102E6000180BFF1F580CFF1F10B4294A12684FF4AB
:102E70000073C0B24409A3401A43254B1A60254A87
:102E8000C0B2431152F82320012310F01F04A340C5
:102E9000C2F8A0301F4AC0B2431152F82320C0B27A
:102EA00010F01F0342F8231010BC704710B4184AEA
:102EB00012684FF40073C0B24409A3401A43144B84
:102EC0001A60144AC0B2431152F82320012310F0B3
:102ED0001F04A340C2F8A03031F4E0610D4AC0B233
:102EE000431152F82320C0B210F01F0352F82320E0
:102EF00012F4E0621143074AC0B2431152F8232092
:102F0000C0B210F01F0342F8231010BC704700003D
:102F100038800440800BFF1F38B504000D000020EE
:102F200000F038F82A002100164800F06BF8002065
:102F300000F04DF84FF47A7000F091F8F2E738B5F0
:102F400004000D002100C9B2012000F09FF820000C
:102F500032BD10B50C480468012000F01BF80120B8
:102F600000F035F80948E4B20F2101FB0402E4B295
:102F70002100074800F046F84FF47A7000F06FF82F
:102F8000EDE700006C43000004ED00E01004FF1FBB
:102F90000843000010B50400E4B2052C07DA012252
:102FA00001211748E4B2205C00F080F80EE0052013
:102FB00004002000441EC0B2002807D001220121D5
:102FC0000F48E4B2205C00F071F8F2E710BD10B5D4
:102FD0000400E4B2052C05DA0948E4B2205C00F0F4
:102FE000F6F80CE0052004002000441EC0B20028C2
:102FF00005D00348E4B2205C00F0E9F8F4E710BD26
:10300000AC0BFF1F0EB400B582B003A900910246BD
:1030100000AB0121034878440A30FDF7FDF906BCF6
:103020005DF810FBB913000010B50400002C15D09A
:10303000B4F1807F03D329210F48FFF76DFF0020F3
:103040000E4908600E48046000200E490860052003
:103050000A49086009480068C003FBD510BD10B5D7
:1030600004002000441E002804D007480068FFF731
:10307000DBFFF6E710BD0000C841000010E000E0F3
:1030800014E000E018E000E05C0CFF1F064AC0B24C
:1030900052F8202012791206F8D5034AC0B252F82D
:1030A0002020D17170470000940BFF1F70B5040001
:1030B0000D0016004FF480712000C0B2FFF7D4FE5F
:1030C000EDB2002D11D16048E4B2611150F8210039
:1030D0005D49E4B2621151F822104969012214F0ED
:1030E0001F039A409143416136E05748E4B26111B1
:1030F00050F821005449E4B2621151F82210496994
:10310000012214F01F039A4011434161F6B2002ED0
:1031100011D14D48E4B2611150F82100006801213D
:1031200014F01F02914088434749E4B2621151F8FC
:103130002210086010E04448E4B2611150F8210008
:103140000068012114F01F02914008433E49E4B297
:10315000621151F82210086070BD38B504000D00EE
:103160003948E4B2611150F82100406914F01F01A0
:103170000200CA40D00703D463213448FFF7CCFED5
:10318000EDB2002D11D13048E4B2611150F82100A8
:103190000068012114F01F02914088432A49E4B2DB
:1031A000621151F82210086010E02748E4B2611162
:1031B00050F821000068012114F01F0291400843DB
:1031C0002149E4B2621151F82210086031BD10B5F6
:1031D00004001D48E4B2611150F82100406914F068
:1031E0001F010200CA40D00703D47B211748FFF714
:1031F00093FE1548E4B2611150F82100012114F04A
:103200001F029140C16010BD10B504000E48E4B229
:10321000611150F82100406914F01F010200CA40FA
:10322000D00703D58C210948FFF776FE0648E4B2A3
:10323000611150F82100006914F01F010200CA401A
:1032400012F0010010BD0000240BFF1F4C420000D3
:10325000DFF800F0F50BFF1FDFF89C13C0B231F868
:103260002010C0B2002800F06D81C0B2112880F299
:1032700069810022DFF884331A7089B2332904DAB5
:103280000022DFF878335A707AE089B2652904DACF
:103290000122DFF868335A7072E089B2972904DAA4
:1032A0000222DFF858335A706AE089B2C92904DA79
:1032B0000322DFF848335A7062E089B2FB2904DA4E
:1032C0000422DFF838335A705AE089B2B1F5967F9C
:1032D00004DC0522DFF824335A7051E089B2B1F5DD
:1032E000AF7F04DC0622DFF814335A7048E089B25D
:1032F000B1F5C87F04DC0722DFF800335A703FE0E5
:1033000089B2B1F5E17F04DC0822DFF8F0325A70AF
:1033100036E089B2B1F5FA7F04DC0922DFF8DC324D
:103320005A702DE089B240F22722914203DA0A2234
:10333000B24B5A7024E089B2B1F5167F03DC0B2240
:10334000AE4B5A701CE089B240F28B22914203DAF4
:103350000C22AA4B5A7013E089B2B1F52F7F03DC1F
:103360000D22A64B5A700BE089B240F2EF22914237
:1033700003DA0E22A14B5A7002E00F229F4B5A70C3
:1033800089B21A2903DA00229C4B9A7069E089B24B
:10339000332903DA0122994B9A7062E089B24C29F1
:1033A00003DA0222954B9A705BE089B2652903DA51
:1033B0000322924B9A7054E089B27E2903DA0422E8
:1033C0008E4B9A704DE089B2972903DA05228B4B18
:1033D0009A7046E089B2B02903DA0622874B9A70C8
:1033E0003FE089B2C92903DA0722844B9A7038E09A
:1033F00089B2E22903DA0822804B9A7031E089B25F
:10340000FB2903DA09227D4B9A702AE089B2B1F5D3
:103410008A7F03DA0A22794B9A7022E089B2B1F5E9
:10342000967F03DC0B22754B9A701AE089B2B1F5D6
:10343000A37F03DA0C22714B9A7012E089B2B1F5C6
:10344000AF7F03DC0D226D4B9A700AE089B2B1F5B3
:10345000BC7F03DA0E22694B9A7002E00F22674BA1
:103460009A7089B21A2903DA0022644BDA7069E093
:1034700089B2332903DA0122604BDA7062E089B243
:103480004C2903DA02225D4BDA705BE089B26529D0
:1034900003DA0322594BDA7054E089B27E2903DA49
:1034A0000422564BDA704DE089B2972903DA0522DF
:1034B000524BDA7046E089B2B02903DA06224F4B4C
:1034C000DA703FE089B2C92903DA07224B4BDA7080
:1034D00038E089B2E22903DA0822484BDA7031E099
:1034E00089B2FB2903DA0922444BDA702AE089B257
:1034F000B1F58A7F03DA0A22404BDA7022E089B202
:10350000B1F5967F03DC0B223C4BDA701AE089B2EE
:10351000B1F5A37F03DA0C22384BDA7012E089B2DE
:10352000B1F5AF7F03DC0D22344BDA700AE089B2CB
:10353000B1F5BC7F03DA0E22304BDA7002E00F22C5
:103540002E4BDA70704710B504002000C0B2FFF7B0
:1035500083FE2B48007810F0FD00294908702848A8
:10356000007850F0100026490870B82025490870EE
:1035700025480078C006FBD423480078C0F38100BA
:10358000C0B20228F8D11D48C3781C4882781B4875
:1035900041781A480078FFF75BFE1748E4B210EB59
:1035A0008400807810F01F00184908701248E4B2B7
:1035B00010EB8400C07810F01F0050F04000144958
:1035C0000870114800788006FBD50F480078400647
:1035D000FBD50C48007810F03F000A4908700A48F3
:1035E0000078C0F38100C0B20328F8D10248E4B2E9
:1035F00030F82400C0B210BD380BFF1F7C0BFF1F3A
:103600000140064000400640064006400440064097
:103610000540064038B5040001212920FFF79DFD33
:1036200000211C20FFF799FD00200500EDB2082DB8
:1036300017DAE4B214FA05F0000604D501211D20C2
:10364000FFF78BFD03E000211D20FFF786FD012120
:103650001C20FFF782FD00211C20FFF77EFD6D1C62
:10366000E4E731BD38B5040000212920FFF775FDDE
:1036700000211C20FFF771FD00200500EDB2082D90
:1036800017DAE4B214FA05F0000604D501211D2072
:10369000FFF763FD03E000211D20FFF75EFD012120
:1036A0001C20FFF75AFD00211C20FFF756FD6D1C62
:1036B000E4E731BD38B504000D00B5F15000C0B2EB
:1036C000FFF7D0FFE4B2200950F01000C0B2FFF7BE
:1036D000C9FF14F00F0050F00100C0B2FFF7C2FFA5
:1036E00031BD70B5040000200500EDB2082D17DAD9
:1036F000B5F15000C0B2FFF7B5FF0120FFF7B2FFF0
:103700001020FFF7AFFF00200600F6B2802E05DA8A
:103710002000C0B2FFF77EFF761CF6E76D1CE4E7E1
:1037200070BD80B5002201212820FFF7BFFC0022D8
:1037300001212920FFF7BAFC002201211C20FFF7FC
:10374000B5FC002201211D20FFF7B0FC01211C2047
:10375000FFF703FD00212820FFF7FFFC3220FFF7D1
:103760007EFC01212820FFF7F8FCAE20FFF77AFF4E
:103770000020FFF777FF1020FFF774FF4020FFF7CE
:1037800071FF8120FFF76EFFCF20FFF76BFFA120B5
:10379000FFF768FFC820FFF765FFA620FFF762FF6D
:1037A000A820FFF75FFF3F20FFF75CFFD320FFF764
:1037B00059FF0020FFF756FFD520FFF753FF802069
:1037C000FFF750FFD920FFF74DFFF120FFF74AFF29
:1037D000DA20FFF747FF1220FFF744FFDB20FFF757
:1037E00041FF4020FFF73EFF2020FFF73BFF022074
:1037F000FFF738FF8D20FFF735FF1420FFF732FF6A
:10380000A420FFF72FFFA620FFF72CFFAF20FFF724
:1038100029FF0020FFF765FF00210020FFF74AFF86
:1038200001BD2DE9F84304000D00160000275FF0EC
:1038300000085FF000095FFA89F919F8060000280E
:103840002BD05FFA89F919F8060020380700E4B296
:103850007F2C02DB002004006D1C2900C9B220006F
:10386000C0B2FFF727FF002080465FFA88F8B8F162
:10387000060F0EDADFF82800FFB2062101FB070071
:103880005FFA88F818F80000FFF7C4FE18F1010885
:10389000EBE7A41D19F10109CDE7BDE8F1830000B4
:1038A000A43800000000000000000000002F00000D
:1038B00000000700070000147F147F1400242A7FF3
:1038C0002A12006264081323003649552250000072
:1038D0000503000000001C224100000041221C00E2
:1038E0000014083E08140008083E0808000000A064
:1038F0006000000808080808000060600000002060
:1039000010080402003E5149453E0000427F40003D
:10391000004261514946002141454B3100181412C3
:103920007F10002745454539003C4A494930000190
:103930007109050300364949493600064949291EDF
:103940000000363600000000563600000008142241
:103950004100001414141414000041221408000241
:103960000151090600324959513E007C1211127C66
:10397000007F49494936003E41414122007F414193
:10398000221C007F49494941007F09090901003E85
:103990004149497A007F0808087F0000417F4100C3
:1039A000002040413F01007F08142241007F404039
:1039B0004040007F020C027F007F0408107F003E21
:1039C0004141413E007F09090906003E4151215E07
:1039D000007F091929460046494949310001017F04
:1039E0000101003F4040403F001F2040201F003F9A
:1039F0004038403F0063140814630007087008074C
:103A000000615149454300007F41410000552A555E
:103A10002A55000041417F000004020102040040D9
:103A200040404040000001020400002054545478FB
:103A3000007F48444438003844444420003844441B
:103A4000487F00385454541800087E0901020018B9
:103A5000A4A4A47C007F080404780000447D4000F6
:103A6000004080847D00007F102844000000417FDA
:103A70004000007C04180478007C080404780038B6
:103A80004444443800FC242424180018242418FC3E
:103A9000007C0804040800485454542000043F44A7
:103AA0004020003C4040207C001C2040201C003C6A
:103AB0004030403C004428102844001CA0A0A07CBA
:103AC000004464544C4414141414141480B501219B
:103AD0004120FFF742FB01214020FFF73EFB6548F4
:103AE00000684FF4FA7148434FF47A7190FBF1F09B
:103AF000FFF79AFA00214120FFF72FFB5D4800688D
:103B00004FF4FA7148434FF47A7190FBF1F0FFF7EC
:103B10008BFA00214020FFF720FB01BD80B500217A
:103B20004020FFF71AFB00214120FFF716FB514808
:103B300000684FF4FA7148434FF47A7190FBF1F04A
:103B4000FFF772FA01214020FFF707FB49480068A0
:103B50004FF4FA7148434FF47A7190FBF1F0FFF79C
:103B600063FA01214120FFF7F8FA01BD10B50121E8
:103B70004120FFF7F2FA3F4800684FF4967148433E
:103B80004FF47A7190FBF1F0FFF74EFA01214020DB
:103B9000FFF7E3FA374800684FF4967148434FF453
:103BA0007A7190FBF1F0FFF73FFA012200214120EA
:103BB000FFF77CFA4120FFF727FB002807D10120FF
:103BC0000400002201214120FFF770FA06E00020E6
:103BD0000400012201214120FFF768FA0021402062
:103BE000FFF7BBFA2000C0B210BD38B504000825AD
:103BF0002800451EC0B2002836D000214020FFF723
:103C0000ACFA1C480068C82148434FF47A7190FB15
:103C1000F1F0FFF709FAE4B2200603D501214120B3
:103C2000FFF79BFA200603D400214120FFF795FA05
:103C30006400104800684FF4967148434FF47A715D
:103C400090FBF1F0FFF7F0F901214020FFF785FA32
:103C5000084800684FF4967148434FF47A7190FB1E
:103C6000F1F0FFF7E1F9C3E700214020FFF775FA13
:103C700031BD00005C0CFF1F2DE9F04104000D0078
:103C80001600B6B2300A070030008046FFF71EFF6C
:103C90006000C0B2FFF7A9FFFFF768FF002801D15D
:103CA000002020E02800C0B2FFF79FFFFFF75EFF73
:103CB000002801D1002016E03800C0B2FFF795FFC0
:103CC000FFF754FF002801D100200CE04046C0B2AD
:103CD000FFF78BFFFFF74AFF002801D1002002E029
:103CE000FFF71CFF0120BDE8F0810000012110F06A
:103CF0001F0291403C4A40B2430942F823107047EA
:103D000080B500F083F800F001F900F025F9FFF725
:103D100008FD002342F2107204210020FEF744FF48
:103D2000002342F2107205210020FEF73DFF4FF400
:103D30004C73322200210120FEF736FF0220FFF7EC
:103D400001F82A4A00210020FFF76BFD284A0121D3
:103D50000020FFF766FD274A02210020FFF761FDE2
:103D6000254A03210020FFF75CFD244A042100209E
:103D7000FFF757FD224A05210020FFF752FD44209E
:103D8000FFF7B4FF1F48028816A11F4800F014F97E
:103D90001D4A00215020FFF744FD1A48428811A116
:103DA000194800F009F9184A01215020FFF739FDA0
:103DB000144882880BA1144800F0FEF8124A022130
:103DC0005020FFF72EFD0F48C28806A10E4800F0D4
:103DD000F3F80D4A03215020FFF723FDC820FFF719
:103DE0003EF9CFE72535640000E100E00044000023
:103DF0000C4400001844000024440000304400003B
:103E00003C440000440CFF1F680CFF1F80B50122DA
:103E100001214020FFF74AF9012201214120FFF74B
:103E200045F94FF400721C212A20FFF725FF40F2CC
:103E3000D64208212A20FFF71FFF40F2D64209216F
:103E40002A20FFF719FF40F2D6420A212A20FFF765
:103E500013FF40F2D6420B212A20FFF70DFF0A2262
:103E600010212A20FFF708FF0A2211212A20FFF73C
:103E700003FF0A2212212A20FFF7FEFE0A22132145
:103E80002A20FFF7F9FE41F2020214212A20FFF74F
:103E9000F3FE41F2020215212A20FFF7EDFE41F266
:103EA000020216212A20FFF7E7FE41F20202172143
:103EB0002A20FFF7E1FE002219212A20FFF7DCFE6D
:103EC0004CF20D221B212A20FFF7D6FE4FF41042A0
:103ED0001E212A20FFF7D0FE4FF410421F212A2076
:103EE000FFF7CAFE4FF4104220212A20FFF7C4FE3C
:103EF0004FF4104221212A20FFF7BEFE41F2016259
:103F00001A212A20FFF7B8FE01BD000080B500226B
:103F100000213420FFF7CAF803213420FEF7C6FF42
:103F2000002200213520FFF7C1F803213520FEF7DC
:103F3000BDFF002200213620FFF7B8F8032136200C
:103F4000FEF7B4FF002200213720FFF7AFF803216E
:103F50003720FEF7ABFF01BD80B5002200211820FD
:103F6000FFF7A4F803211820FEF7A0FF002200218C
:103F70006020FFF79BF803216020FEF797FF0022E7
:103F800000211920FFF792F803211920FEF78EFF78
:103F9000002200211B20FFF789F803211B20FEF7D8
:103FA00085FF002200211A20FFF780F803211A2044
:103FB000FEF77CFF01BD00000CB41CB5044604A84C
:103FC00001900A46009401AB00A9074878441830D4
:103FD000FCF722FA009A0021117000285CBF0098BB
:103FE000001B16BC5DF80CFBA7D5FFFF80B500F0E9
:103FF0008DF800F023F800F008F8012201210420D8
:10400000FFF754F8FFF77CFEFEE780B50420FFF7CA
:104010009AFA304908602F4800684FF47A71484393
:104020002D4908602C4800682C490968C1F30361D8
:10403000491CB0FBF1F02A49086001BD2DE9F843A5
:104040002848294988420DD000208046B8F5826F63
:1040500008D2254850F82800224941F8280018F1D4
:104060000108F3E71F4800F071F8204807002048D6
:10407000060020480400A01B80464046B0F101081D
:10408000002804D030783870761C7F1CF5E71A4879
:1040900081461A480500B5EB090080464046B0F15C
:1040A0000108002805D0002089F8000019F1010955
:1040B000F4E713481349144A531A98464346B3F198
:1040C0000108002B04D00B780370491C401CF5E755
:1040D000BDE8F183600CFF1F5C0CFF1F44800440AF
:1040E000640CFF1F0000FF1F000000001004FF1FF2
:1040F000AC220000902A0000440CFF1F140DFF1F8B
:10410000F40BFF1F78410000C841000080B500F0AB
:1041100008F80C4800884FF6FE71084009490880ED
:1041200001BDEFF3118072B64CF22051064A1180A6
:104130004DF62811044A1180C0B2002800D162B6A1
:1041400070470000002005400E20054010B5040017
:104150004FF4007094FBF0F101FB1041002903D0F3
:104160001E210348FEF7D8FE0248046010BD00007F
:10417000CC42000008ED00E0F0B4114E3668340087
:104180000F4E366856F47F060D4F3E600E0616F051
:10419000706656EA0076170517F470073E431F0451
:1041A00017F470273E43074F3E6000263500EDB2FE
:1041B0009D4201D26D1CFAE7014E3460F0BC70479D
:1041C00000F0014044800440443A5C5374756479C3
:1041D0005C32303136B5E7D7D3C9E8BCC6B4F3C8D2
:1041E000FC5C54695CB5E7C8FCB1B8D3C3B5D7B2C1
:1041F000E35C436869705C7372635C4D4B36305F9F
:104200005379735469636B2E63000000443A5C5326
:10421000747564795C32303136B5E7D7D3C9E8BC00
:10422000C6B4F3C8FC5C54695CB5E7C8FCB1B8D34C
:10423000C3B5D7B2E35C436869705C7372635C4D6D
:104240004B36305F66746D2E63000000443A5C5359
:10425000747564795C32303136B5E7D7D3C9E8BCC0
:10426000C6B4F3C8FC5C54695CB5E7C8FCB1B8D30C
:10427000C3B5D7B2E35C436869705C7372635C4D2D
:104280004B36305F6770696F2E63000019E050F89D
:10429000041BCB0744BFA9F101035918121F0023C7
:1042A000042A41F8043BF9D25FEA827C0B4604D52C
:1042B0004FF0000CA1F800C09B1CD10744BF0021A7
:1042C000197050F8042B002AE1D17047443A5C532E
:1042D000747564795C32303136B5E7D7D3C9E8BC40
:1042E000C6B4F3C8FC5C54695CB5E7C8FCB1B8D38C
:1042F000C3B5D7B2E35C436869705C7372635C6D8D
:104300006973632E630000000A2A2A2A2A646566FC
:1043100061756C745F69737220656E746572656433
:10432000206F6E20766563746F722025642A2A2AB6
:104330002A2A0A0A257320496E7465727275707490
:104340000000000010B5074979441831064C7C4440
:10435000163404E00A68081D511888470146A14236
:10436000F8D110BD2C0000003800000041737365C7
:104370007274696F6E206661696C656420696E2075
:104380002573206174206C696E652025640A000025
:10439000FDFEFFFFD0000000440CFF1F00000000E6
:1043A00000F00BF8002801D0FFF7CCFF0020C0463A
:1043B000C046FFF7A5FC00F002F80120704700F0AE
:1043C00001B800000746384600F002F8FBE700009D
:1043D0002021090326311820ABBEF9E738B5044681
:1043E0000D46284600F006F8A84218BF00242046D3
:1043F00032BD00000149FEF7A2BD00BFB40BFF1F94
:104400004C44435F43683020203D00004C44435FF0
:1044100043683120203D00004C44435F4368322014
:10442000203D00004C44435F43683320203D0000A2
:1044300054696D65436F7374203D00004469737463
:10444000616E6365203D0000C046C046C046C04660
:10445000FFF7A6FF000000000000000000000000C1
:10446000000000000000000000000000000000004C
:10447000FFFFFFFFFFFFFFFF000000000000000044
:10448000000000000000000000000000000000002C
:10449000000000000000000000000000FFFFFFFF20
:1044A000FFFF00000000000000000000000000000E
:1044B00000000000000000000000000000000000FC
:1044C00000000000000000000000000000000000EC
:1044D00000000000000000000000000000000000DC
:1044E00000000000000000000000000000000000CC
:1044F00000000000000000000000000000000000BC
:1045000000000000000000000000000000000000AB
:10451000000000000000000000000000000000009B
:10452000000000000000000000000000000000008B
:10453000000000000000000000000000000000007B
:10454000000000000000000000000000000000006B
:04000005000044496A
:00000001FF
